:0400000002008C323C
:03000B00020024CC
:0100130032BA
:01001B0032B2
:1000230032C0D0C0E0D51E32051F751E647464B59E
:100033002002B280B52102B281B52202B282B52379
:1000430002B283B52402B284B52502B285B4640238
:10005300B286B4642FB287020087E51EB52002B2D0
:1000630080B52102B281B52202B282B52302B283E6
:10007300B52402B284B52502B285B52602B286B58F
:100083002702B287D0E0D0D032758C0FD2AFD2A97D
:10009300D28CD2529080021211AC4008908002128E
:1000A3001295C252E4F5D0F528C253C25475812B80
:1000B300751D007890752B00C28E75985A7589222C
:1000C300758DFDD28EE51F600A120D57C251C252C3
:1000D300020A7A75820075832074FFF0D251D252DE
:1000E300020AB6B43000401FB43A1A50028016B464
:1000F30041004013B45B0E5002800AB46100400714
:10010300B47B045002D322C322B461004007B47B02
:1001130000500254DF223098FDE599C298547FB411
:100123000A02740022740D3099FDC299F599B40D39
:100133000A3099FDC29975990A8004C3D5140475D0
:100143001408D32230980A3119B413053119B411A4
:10015300FB227420312A50FA22540F7003205807CF
:10016300C258240383312A223031323334353637AF
:100173003839414243444546F508C258315CE508E5
:10018300C4C258315CE50822D083D082E493A31023
:10019300E704312A80F6312AE473E493312AA3B4C5
:1001A30000F822000000C0E0CA7AE40000DAFCCACA
:1001B300D0E02231A831A80031A831A880E775A08A
:1001C30000A91DB901004027FEE3FF19E3CE1989F9
:1001D3001D192275A000A91DE3151D2275A000A9F4
:1001E3001DB9FD00500909EEF309EFF3891D221231
:1001F30010170F75A000A91DB9FD0050F2D082D0D1
:1002030083E49329F9E3A91D09F3891D2275A0004D
:10021300D083D082E493051DA91DB9FF03021017F3
:10022300F37401D3738090A0B08898A8B8898A8B9F
:100233008C8D998E80228E90228EA0228EB0228E5B
:1002430088228E98228EA8228EB8228E89228E8AA8
:10025300228E8B228E8C228E8D228E9922E58022F5
:10026300E59022E5A022E5B022E58822E59822E583
:10027300A822E5B822E58922E58A22E58B22E58CCE
:1002830022E58D22E59922900228E4FDED93697021
:1002930004ED232D220DEDB40EF2020FF7FEE9203B
:1002A300E703EEF722518A90023673E920E702E76B
:1002B30022518A90026073EE54F820E70423C42489
:1002C30020F9EE5407240383F5F0220102040810F9
:1002D300204080D25B8002C25B31C18E088F09311E
:1002E300C131D6305B06051D051D051D9002F49333
:1002F30073051E243939EEC333F9EF33C3C9340010
:10030300F582E9341CF583E508F0A3E509F022EE54
:10031300F9E508808851BA51AEFEE50820E006E50C
:10032300F0F45E41A0E5F04E41A08F838E82E50894
:10033300F022D25B8002C25B31C131D6305B06054D
:100343001D051D051D90034D9373051F253138EEC3
:10035300C333F9EF33C3C93400F582E9341CF583A1
:10036300E0FEA3E0FF21DF419DEEF951AE8019517C
:10037300BA51AE55F024FFE433800D8F838E82E0B3
:1003830080068F838E82E4937F00FE21DF24D0B426
:100393000A005005FE7F00C25D22205D3E24D0B4DA
:1003A3000A00401330543424EFB406004007B40766
:1003B3002AD25DD322240ACE75F00A30540375F095
:1003C30010C0F0A42EFEE435F0CFD0F0A42FFF72BE
:1003D300E7E5F034FFB0544004D322C322120FF7F1
:1003E30002A2D2B054400122120FF70631C1120308
:1003F300F680EE75A000E32EF309E33FF32275A028
:100403000031C1C3E39EF309E39FF380D475A000D9
:1004130031C1E35EF309E35FF32275A00031C1E369
:100423004EF309E34FF32275A00031C1E36EF309E4
:10043300E36FF32275A000A91DE3A2E7B0544008BF
:1004430022205A0422D38003C3B25A75A000A91DE7
:1004530019E3F5F0E495F0F309E3F5F0E495F0F32F
:1004630061E475A000A91D19E304F3B4000409E3D2
:1004730004F3228F088E0931C1E5086006EF600D91
:10048300021048E5088F08FFE5098E09FEE5098E8D
:10049300F0A485F00AF50BEE8508F0A410D2E1C3B1
:1004A300350A40DCFFAE0B31DF22C25A913731C12E
:1004B3009137917671E4914422D25C8002C25CD27E
:1004C3005A9137914B31C1EE4F605CA25AB05C92A6
:1004D3005A9137F5091975A000E3F508E4F50BF512
:1004E3000A7D11C38017E50A33F50AC50B33C50B23
:1004F3002EF50CE50B3F5005850C0AF50BE508338B
:10050300F508E50933F509DDDD205C0DF50DE5089A
:10051300F309E509F3E50D800BF50DE50AF309E5AC
:100523000BF3E50D91442261EBAE10AF1131DF7E89
:10053300557F6291767E197F36A91D1971F631C1F7
:10054300BE0007BF80047E2A7F318E108F1131DFFA
:100553002231C131D675A000F5F0A91D19C3E39E60
:1005630009F50DE3C50DF3C50D2054066480CF6472
:1005730080CF9F450D7004A2F180084004A2F08053
:1005830002A2F2E475A000F33319F322C2592051F9
:10059300057A207800222052057A1E7895229080D1
:1005A30002E0A370FCAA83A8822288158A168C17FE
:1005B30022AA16A815AC172220530575A000E22223
:1005C30020520EC082C0838A838882E0D083D08287
:1005D30022E8C582CAC583F8E493C8C583CAC58225
:1005E300C822105909B1BBFC08B800010A22EC2249
:1005F30020510EC083C0828B838982F0D082D08346
:1006030022020FF7B1F309B900010B22B1E564200F
:1006130060FAD259D322B1E5B1E5B1E5B40DFB22BD
:10062300D083D082B1E5EC310CFCB1ADE493A2E709
:10063300547F6C700FA34008B1E5EC310CFC80ECE7
:10064300D10FE473E493A330E7FAB1B4D259C3E40E
:1006530073B1E5310C24BFFE24E65004D259C32202
:10066300B1ADB1E5310C24BF24E650030207ABB1B1
:10067300B4D259D123504F52D4500B5110015110C1
:10068300905110008086D1234552524FD2500B51C6
:10069300100151101A511000C10FD12354494D4577
:1006A300D2500B51100151101F511000C10FD12313
:1006B300465245D1500B51100151108C511000C1BD
:1006C3000FD1234D4153CB500B51100151102851E1
:1006D3001000C10FD12350574DB0500B5110015191
:1006E3001020511000C10FD12350574DB1500B5161
:1006F3001001511022511000C10FD12350574DB298
:10070300500B511001511022511000C10FD1235031
:10071300574DB3500B511001511023511000C10F0D
:10072300D12350574DB4500B511001511024511087
:1007330000C10FD12350574DB5500B51100151102B
:1007430026511000C10FD12350574DB6500B5110F5
:1007530001511026511000C10FD12350574DB750EE
:100763000B511001511027511000C10FD1234442E6
:100773005954C550055110018029D123524249D4FF
:100783005005511002801CD12358425954C55005BD
:10079300511003800ED12343425954C550035110C5
:1007A30004C32212110FD3225110007F0031DFD274
:1007B30059C10FB1E571904003D25922B1E5719D42
:1007C30040FA31DFD259C10FB1E5F5086422600860
:1007D30064056004C3D25922B1E5B50802C10F31E3
:1007E3002AB40DF402102EB1E5BC3A0322B1E5BCE4
:1007F3000D0122D25902102EB1E5BC3A0122BC0DE3
:100803000122D259D3221205E5F5191205E5F5188F
:10081300E519A2E72230530280ECD322120128BC4F
:100823003A0612060F020ABC020AB8E51D2404F5B3
:1008330008A80812018B2D2DBE12011960FBB412FA
:100843001712018B8D8815A808E8651560EB75A054
:1008530000E212012A0880F1B47F0712018B238D75
:1008630080CFB40813E8B5080612018B8780CA123B
:10087300018B0820881880C1B8FE0612018B87807F
:10088300B875A000F212012A08B40DADA808C25928
:1008930022C25A1204371201C1D258E4F5087D105E
:1008A30020541E305A0412018BADCE33CECF33CF3A
:1008B300C50835E0D4C50835E0D4DDEEFFEE33AE30
:1008C3000812015CEFC412015CEF12015C305402A8
:1008D300C258EEC412015CC258EE12015C305404DB
:1008E30012018BC82211094015AF19AE18C25A1153
:1008F3009C12018BA01205E512012AB40DF722D236
:100903005312058F120147400411E850F7C25322D6
:10091300C25A12018B3AA012011912012AB4200201
:1009230080F5B42B0280F0B42D04B25A80E912038F
:1009330090500912011912012AB47F0712018B2367
:100943008D80CD12039D40EB1201DF020444120996
:1009530054E4F52AF52B900000F0A3A883B87FF99F
:10096300A882B8FFF49020007480F022751D001255
:10097300058FD25322D25312058F1201C11205AD36
:1009830011094013EE9518F518EF951945186007EE
:10099300400512061D80E60205B4A915AB16120622
:1009A300191205E512060720E7111205E5120607DD
:1009B3001205E5120607B40DF780E6221205B4C24C
:1009C300591205E520E70B1205E51205E5B40DFA0A
:1009D30080EFE512240328F9E43AFBB47F03021005
:1009E300171205C31205F3E8B51505EAB51601227A
:1009F30018B8FF011A19B9FFE81B80E5A915AB1652
:100A0300EF120607EE120607A81375A000E21206FE
:100A13000708B40DF82218881331784002319DA9D4
:100A230013190975A000E3B40DF8E9C39513F51282
:100A3300600431BF31FFC253221201C1EE132231D0
:100A4300784003020AB8020FF7AF19AE180201DFAC
:100A53003178120619020AB8C253020A8275A0003D
:100A6300A91DC5F0E3C5F019E319891DC0E0C0F065
:100A730043D01875A0FF22C25375812B751D00202A
:100A8300523110512E12018B0D57686174206E651F
:100A9300787420626F73733F2020208D7518007562
:100AA3001900112E12060F1207B6500D511980F2BC
:100AB3001207F0316F111840BE12014712060F12D0
:100AC30006545014120623BD500E1210641207EA86
:100AD3001202DA012202102E1206234C45D45013BF
:100AE30012065450F0BD50ED1210641207EA1202C0
:100AF300DA012212062347CF501F1206235355C291
:100B03005005514C020B1112062354CF50081210FA
:100B1300641207F0414202102E1206235052494E2E
:100B2300D44008120623BF400280301207FB50272F
:100B3300120623BB401A120623AC40111207FB50C6
:100B43001A1207CB40E5121064119480DE1201558E
:100B53001207FB500480D4011F012212062349C649
:100B63005017121064120623544845CE5000513CCE
:100B7300500241BC12061D41B8120623494E50557E
:100B8300D450281207CB400A1206545016311312C0
:100B930002DA120623BB40EB120623AC5008120103
:100BA3005580E00211541207EA011F120623524531
:100BB300545552CE50051207F041531206234341B8
:100BC3004CCC500D1210641207F0516053D0E70162
:100BD30022120623454EC450051207F0415B12064C
:100BE300234C4953D450121207FB5009121064319D
:100BF3007831074182310241821206235255CE5089
:100C03000241B31206234E45D7500E1207EA7582EE
:100C13000075832074FFF0417A1206234252454146
:100C2300CB50061207EA02000012062350524FC7A8
:100C3300503612062344454DCF50091207EAD251CC
:100C4300D2520122120623415554CF50091207EA0A
:100C5300D251C25201221206235241CD500712072C
:100C6300EAC2510122020FF71206234845D8500762
:100C73001207EAD25401221206234445C350071235
:100C830007EAC25401221206235245CD5010120620
:100C93001D41B8120623A7500512061D41B81206BE
:100CA30023434CD3500D12018B1B5B324A80120736
:100CB300EA012212062348454CD05014120623435E
:100CC3004D44D3500E9013FE12019D1207EA0122E8
:100CD300020D4712062346554EC3500B90190E12B0
:100CE300019D1207EA01221206234F5045D2500BF1
:100CF3009019CF12019D1207EA01221206235641D1
:100D0300D25036901CE112019D1207EA012212060D
:100D130023414CCC50239012BC12019D9013FE1220
:100D2300019D90190E12019D9019CF12019D901CE7
:100D3300E112019D1207EA01229012BC12019D12D9
:100D430007EA01221206235645D25067120D5712A5
:100D530007EA012212018B1B5B324A8012018B20AE
:100D6300204C696C27426173696320766572203376
:100D73002E328D12018B28632931332F4A414E2F96
:100D830032303032202020202D4E51520D8D120151
:100D93008B547970652048454C5020666F72206DE6
:100DA3006F726520696E666F726D6174696F6E2E06
:100DB3000D8D2212062346494C45D3507812018BE0
:100DC3000D0D2046696C657320696E206D656D6F2E
:100DD3007279200D3D3D3D3D3D3D3D3D3D3D3D3D1C
:100DE3003D3D3D3D3D0D80901E8A12119E502A745B
:100DF3000093F509A3742012012A12019D74201295
:100E0300012A12012A742812012AE50912012A74FF
:100E13002912012A12012880D112018B3D3D3D3D4B
:100E23003D3D3D3D3D3D3D3D3D3D3D3D3D0D0D800C
:100E33001207EA01221206234C4F41C4503A18B854
:100E4300FF011AD25974501211C840157509007563
:100E53000A2085820B85830CD25E1211FDC251419B
:100E63007A12018B0D46696C65206E6F7420666F74
:100E7300756E640D80020FF7120623534156C55059
:100E83004B18B8FF011AD25974501211C850D2121C
:100E930012AF745012123785820985830A750B00CD
:100EA300750C20C25E1211FD121295417A12018B4C
:100EB3000D44656C657465206F6C642066696C65B0
:100EC300206669727374210D80020FF7120623578F
:100ED300495045414CCC5033908002121295740016
:100EE300F0E070FAE58312017BE58212017B740D59
:100EF30012012AE582541F7007E01201B61201B6EF
:100F0300A37400B583D81207EA01221206232E55D3
:100F13004E4C4F43CB5008120F471207EA012212DF
:100F230006232E4C4F43CB5008120F6C1207EA01D5
:100F3300221206232E434C4541D25008120F85122C
:100F430007EA012274AA90D555F0745590AAAAF025
:100F5300748090D555F074AA90D555F0745590AA25
:100F6300AAF0742090D555F02274AA90D555F07448
:100F73005590AAAAF074A090D555F074AA90D555AF
:100F8300F02274AA90D555F0745590AAAAF07480F3
:100F930090D555F074AA90D555F0745590AAAAF03F
:100FA300741090D555F01201B61201B61201B612A3
:100FB30001B61201B60201B602102EAE18AF198E99
:100FC3001B8F1CBE0005BF0002417A12018B4572C4
:100FD300726F7220696E206C696E65206E756D622A
:100FE30065722080751D001201DF119412018B2E92
:100FF300208D80D512018B4E6F74207769746869D8
:101003006E206D79206D65616E732E2020078D75BE
:101013001A0180A712018B537461636B206572728E
:101023006F722E20078D751A02809012018B0D535B
:10103300796E746178206572726F722E20078D75D8
:101043001A01020FBE12018B0D4F766572666C6F2B
:1010530077206572726F722E20078D751A04020F46
:10106300BE12107412115750461210741205548098
:10107300F31210B3120623AB50081210B31203EF8E
:1010830080F2120623AD50081210B312040180E45B
:101093001206234FD250081210B312041D80D5122A
:1010A3000623584FD250081210B312042A80C522C7
:1010B3001210F3120623AA50081210F31204AD8083
:1010C300F2120623AF50081210F31204C080E41288
:1010D3000623414EC450081210F312041080D41298
:1010E30006234D4FC450081210F31204BC80C422CF
:1010F300120623AD500712110F12044B22120623BE
:101103004E4FD4500712110F1204482212065450A6
:1011130004120339221207B6500122120623524E3B
:10112300C4501012052C1211451204BC12043712BC
:101133000465221206234142D350071211451204BB
:101143003722120623A850091164120623A950015D
:1011530022020AD8120623BD5005120210022212DF
:1011630006233CBD500512021006221206233CBE84
:1011730050051202100522120623BC50051202105C
:1011830004221206233EBD5005120210032212064A
:1011930023BE50051202100122C322E583602412EC
:1011A30011ACA350F6A3A3A322740093B42914741F
:1011B3000193B4EE0E740293B4F108740393B4F282
:1011C30002D322C322F509880B8A0C1205E5901E6F
:1011D3008A319E5021740093A3B509F5A80BAA0C7C
:1011E3001205E512010CF50D740093A312010C60B6
:1011F30007B50DDD80EAD322C322850B82850C83DC
:10120300205E03E08002E493A385820B85830C8533
:101213000982850A83F0A3C0E0E582541F7007E0CA
:101223001201B61201B6D0E085820985830A548083
:10123300B480C722F5097429F0E01201B61201B691
:10124300A374EEF0E01201B61201B6A374F1F0E05C
:101253001201B61201B6A374F2F0E01201B6120144
:10126300B6A3E509F0E01201B61201B618B8FF0003
:101273001AA3C082C0831205E512010CD083D08269
:10128300F01200E640EB7400F0E01201B61201B672
:10129300A322C082C083E582908000F0A3D0E0F057
:1012A300E01201B61201B6F583D08222908000E0ED
:1012B300C0E0A3E0F583D082221B5B324A204C6955
:1012C3006C2742617369632048454C502028632989
:1012D3003230303220202D4E51520D2D2D2D2D2DFB
:1012E3002D2D2D2D2D2D2D2D2D2D2D2D2D2D2D2D2B
:1012F3002D2D2D2D2D2D2D2D2D2D2D2D2D2D2D2D1B
:101303002D2D2D2D2D2D2D2D2D2D2D2D2D2D2D2D0A
:101313002D2D2D2D2D2D2D2D2D2D2D2D2D2D0D0D3A
:1013230048656C70204F6E2048454C5020636F6DAC
:101333006D616E640D2D2D2D2D2D2D2D2D2D2D2D0E
:101343002D2D2D0D48454C5020434D4453202E2E1A
:101353002E2E2E2E2E2E2E2E2048656C70206F6E74
:1013630020426173696320636F6D6D616E64730DF9
:1013730048454C502046554E43202E2E2E2E2E2EC1
:101383002E2E2E2E2048656C70206F6E20426173C6
:1013930069632066756E6374696F6E730D48454C9F
:1013A30050204F504552202E2E2E2E2E2E2E2E2ED6
:1013B3002E2048656C70206F6E2042617369632034
:1013C3006F70657261746F72730D48454C5020568F
:1013D300415253202E2E2E2E2E2E2E2E2E2E2048D0
:1013E300656C70206F6E2042617369632076617251
:1013F3006961626C65730D0D0D00001B5B324A2041
:101403004C696C2742617369632048454C5020281E
:1014130063293230303220202D4E51520D2D2D2D87
:101423002D2D2D2D2D2D2D2D2D2D2D2D2D2D2D2DE9
:101433002D2D2D2D2D2D2D2D2D2D2D2D2D2D2D2DD9
:101443002D2D2D2D2D2D2D2D2D2D2D2D2D2D2D2DC9
:101453002D2D2D2D2D2D2D2D2D2D2D2D2D2D2D2DB9
:101463000D0D426173696320436F6D6D616E64732B
:101473000D2D2D2D2D2D2D2D2D2D2D2D2D2D2D0DD9
:1014830046494C455320202E2E2E2E2E2E2E2E2E08
:101493002E2E2E2E204C6973742066696C65732082
:1014A300696E206D656D6F72790D4C4F414420203C
:1014B3002E2E2E2E2E2E2E2E2E2E2E2E2E2E204C39
:1014C3006F616420612070726F6772616D0D5341AB
:1014D3005645202E2E2E2E2E2E2E2E2E2E2E2E2EF8
:1014E3002E2E20536176652070726F6772616D20B6
:1014F3000D57495045414C4C202E2E2E2E2E2E2E6C
:101503002E2E2E2E2E205769706520416C6C207371
:10151300617665642070726F6772616D73434C53BB
:1015230020202E2E2E2E2E2E2E2E2E2E2E2E2E2EF4
:101533002E2053656E642045736361706520636F6D
:10154300646520746F20636C656172207468652024
:1015530073637265656E0D4C455420202E2E2E2E1E
:101563002E2E2E2E2E2E2E2E2E2E2E2041737369CE
:10157300676E2076616C756520746F2061207661DB
:10158300726961626C65200D474F544F202E2E2ED9
:101593002E2E2E2E2E2E2E2E2E2E2E2E20436F6EE0
:1015A30074696E756520657865637574696F6E20FF
:1015B3006F6E206E6577206C696E65206F662063A1
:1015C3006F64650D474F53554220202E2E2E2E2E2D
:1015D3002E2E2E2E2E2E2E2E20476F20746F20613E
:1015E30020737562726F7574696E650D524554553B
:1015F300524E20202E2E2E2E2E2E2E2E2E2E2E2EE0
:101603002052657475726E2066726F6D206120734F
:101613007562726F7574696E650D5052494E542030
:101623006F72203F202E2E2E2E2E2E2E2E2E204455
:101633006973706C617920696E666F726D6174692C
:101643006F6E207669612E2032333220706F727490
:101653000D4946202829205448454E20202E2E2E61
:101663002E2E2E2E2E20436F6E646974696F6E6169
:101673006C206272616E63680D494E505554202090
:101683002E2E2E2E2E2E2E2E2E2E2E2E2E20476535
:10169300742061206E756D6265722066726F6D20B5
:1016A30032333220706F72740D43414C4C20202E24
:1016B3002E2E2E2E2E2E2E2E2E2E2E2E2E204578F4
:1016C3006563757465206D616368696E6520636F1A
:1016D30064650D52454D20202E2E2E2E2E2E2E2E9D
:1016E3002E2E2E2E2E2E2E20496E7365727420639D
:1016F3006F6D6D656E747320696E746F2070726F99
:101703006772616D0D454E4420202E2E2E2E2E2EF7
:101713002E2E2E2E2E2E2E2E2E2053746F702065DD
:101723007865637574696F6E206F662070726F677A
:1017330072616D0D4C49535420202E2E2E2E2E2EC9
:101743002E2E2E2E2E2E2E2E20446973706C617930
:101753002070726F6772616D0D52554E20202E2ED0
:101763002E2E2E2E2E2E2E2E2E2E2E2E2E20457843
:1017730065637574652070726F6772616D0D4E4598
:101783005720202E2E2E2E2E2E2E2E2E2E2E2E2E69
:101793002E2E2045726173652070726F6772616DC2
:1017A3002026207661726961626C65730D42524531
:1017B300414B20202E2E2E2E2E2E2E2E2E2E2E2E32
:1017C3002E205265737461727420435055207361E7
:1017D3006D6520617320526573657420627574743E
:1017E3006F6E0D48455820202E2E2E2E2E2E2E2E77
:1017F3002E2E2E2E2E2E2E204368616E67652074AA
:101803006F204261736520313620666F7220496E06
:101813007075742026204F75747075740D4445439C
:1018230020202E2E2E2E2E2E2E2E2E2E2E2E2E2EF1
:101833002E204368616E676520746F204261736573
:1018430020313020666F7220496E70757420262017
:101853004F75747075740D56455220202E2E2E2E02
:101863002E2E2E2E2E2E2E2E2E2E2E2044697370CB
:101873006C6179204C696C274261736963207665DA
:101883007273696F6E0D2E4C4F434B20202E2E2EFC
:101893002E2E2E2E2E2E2E2E2E2E204C6F636B20B0
:1018A3004E5652414D2028696E68696269742063FF
:1018B30068616E67657320746F2073617665642059
:1018C30066696C6573290D2E554E4C4F434B202092
:1018D3002E2E2E2E2E2E2E2E2E2E2E20556E6C6F4D
:1018E300636B204E5652414D2028616C6C6F7720FC
:1018F3006368616E67657320746F207361766564D6
:101903002066696C6573290D0D00001B5B324A204C
:101913004C696C2742617369632048454C50202809
:1019230063293230303220202D4E51520D2D2D2D72
:101933002D2D2D2D2D2D2D2D2D2D2D2D2D2D2D2DD4
:101943002D2D2D2D2D2D2D2D2D2D2D2D2D2D2D2DC4
:101953002D2D2D2D2D2D2D2D2D2D2D2D2D2D2D2DB4
:101963002D2D2D2D2D2D2D2D2D2D2D2D2D2D2D2DA4
:101973000D0D42617369632046756E6374696F6E02
:10198300730D2D2D2D2D2D2D2D2D2D2D2D2D2D2D5E
:101993002D0D414253282920202E2E2E2E2E2E2E61
:1019A3002E2E2E2E2E2E2052657475726E732041AC
:1019B30062736F6C7574652076616C7565206F66F4
:1019C300204E756D6265720D0D0D00001B5B324A72
:1019D300204C696C2742617369632048454C502051
:1019E30066696C652020202863293230303220203C
:1019F3002D4E51520D2D2D2D2D2D2D2D2D2D2D2DCA
:101A03002D2D2D2D2D2D2D2D2D2D2D2D2D2D2D2D03
:101A13002D2D2D2D2D2D2D2D2D2D2D2D2D2D2D2DF3
:101A23002D2D2D2D2D2D2D2D2D2D2D2D2D2D2D2DE3
:101A33002D2D2D2D2D2D2D2D0D0D4261736963201F
:101A43004F70657261746F72730D2D2D2D2D2D2DB9
:101A53002D2D2D2D2D2D2D2D2D0D2B20202E2E2EEC
:101A63002E2E2E2E2E2E2E2E2E2E2E2E2E2020419C
:101A730064646974696F6E0D2D20202E2E2E2E2E18
:101A83002E2E2E2E2E2E2E2E2E2E2E2020537562EF
:101A93007472616374696F6E0D2A20202E2E2E2EB0
:101AA3002E2E2E2E2E2E2E2E2E2E2E2E20204D7509
:101AB3006C7469706C69636174696F6E0D2F20209B
:101AC3002E2E2E2E2E2E2E2E2E2E2E2E2E2E2E2E33
:101AD30020204469766973696F6E0D4D4F44202051
:101AE3002E2E2E2E2E2E2E2E2E2E2E2E2E2E20202F
:101AF3004D6F64756C657320282052656D61696E46
:101B03006465722066726F6D206469766973696FAC
:101B13006E20290D3D20202E2E2E2E2E2E2E2E2EE3
:101B23002E2E2E2E2E2E2E2020436F6D7061726569
:101B330020696620457175616C0D3E20202E2E2E86
:101B43002E2E2E2E2E2E2E2E2E2E2E2E2E202043B9
:101B53006F6D706172652069662047726561746597
:101B630072207468616E0D3C20202E2E2E2E2E2E98
:101B73002E2E2E2E2E2E2E2E2E2E2020436F6D70C7
:101B8300617265206966204C657373207468616EA9
:101B93000D3C3E20202E2E2E2E2E2E2E2E2E2E2E81
:101BA3002E2E2E2E2020436F6D7061726520696684
:101BB300204E6F7420457175616C0D3E3D20202EC3
:101BC3002E2E2E2E2E2E2E2E2E2E2E2E2E2E20204E
:101BD300436F6D7061697220696620477261746535
:101BE30072207468616E206F7220457175616C0D8F
:101BF3003C3D20202E2E2E2E2E2E2E2E2E2E2E2E01
:101C03002E2E2E2020436F6D70616972206966202D
:101C13004C657373207468616E206F722045717513
:101C2300616C0D4E4F5420202E2E2E2E2E2E2E2E36
:101C33002E2E2E2E2E2E20204269742D7769736549
:101C4300206C6F676963616C20636F6D706C656D89
:101C5300656E740D414E4420202E2E2E2E2E2E2ED8
:101C63002E2E2E2E2E2E2E20204269742D77697350
:101C730065206C6F676963616C20414E440D4F5260
:101C830020202E2E2E2E2E2E2E2E2E2E2E2E2E2E8D
:101C93002E20204269742D77697365206C6F676904
:101CA30063616C204F520D584F5220202E2E2E2E42
:101CB3002E2E2E2E2E2E2E2E2E2E20204269742DC9
:101CC30077697365206C6F676963616C204578631E
:101CD3006C7573697665204F520D0D0D00001B5B0B
:101CE300324A204C696C2742617369632048454C32
:101CF300502066696C6520202028632932303032F9
:101D030020202D4E51520D2D2D2D2D2D2D2D2D2DD0
:101D13002D2D2D2D2D2D2D2D2D2D2D2D2D2D2D2DF0
:101D23002D2D2D2D2D2D2D2D2D2D2D2D2D2D2D2DE0
:101D33002D2D2D2D2D2D2D2D2D2D2D2D2D2D2D2DD0
:101D43002D2D2D2D2D2D2D2D2D2D0D0D4261736935
:101D530063205661726961626C65730D2D2D2D2DA3
:101D63002D2D2D2D2D2D2D2D2D2D2D0D4120746F30
:101D7300205A202E2E2E2E2E2E2E2E2E2E2E2E2E70
:101D8300202042617369632050726F6772616D2016
:101D93007661726961626C65730D504F52542020F5
:101DA3002E2E2E2E2E2E2E2E2E2E2E2E2E20203862
:101DB30020626974207573657220506F7274206F8E
:101DC3006E205043420D4442595445282920202E69
:101DD3002E2E2E2E2E2E2E2E2E2E20204F6E2062B5
:101DE3006F61726420435055204D656D6F72792089
:101DF3006C6F636174696F6E0D52424954282920D8
:101E0300202E2E2E2E2E2E2E2E2E2E2E2E20204FF8
:101E13006E20626F617264204350552042697420C2
:101E23006C6F636174696F6E0D584259544528296C
:101E330020202E2E2E2E2E2E2E2E2E2E2E202045E0
:101E4300787465726E616C204D656D6F7279206C6C
:101E53006F636174696F6E0D43425954452829209D
:101E6300202E2E2E2E2E2E2E2E2E2E2E2020436F63
:101E73006465204D656D6F7279206C6F6361746961
:101E83006F6E0D0D0D000029EEF1F25048454C4CDC
:101E93004F00000A3F2268656C6C6F2020223B0DC7
:0B1EA3000014676F746F2031300D8059
:00000001FF
